:100000000C9496070C94BE070C94BE070C94BE0784
:100010000C94BE070C94BE070C94BE070C94BE074C
:100020000C94BE070C94BE070C941E0F0C94241065
:100030000C94BE070C94BE070C94BE070C94BE072C
:100040000C94BE070C94BE070C94BE070C94BE071C
:100050000C94BE070C94BE070C94BE070C94830945
:100060000C94BE070C94BE070C94BE070C94BE07FC
:100070000C94BE070C94BE070C94BE070C94BE07EC
:100080000C94BE070C94BE070C94BE070C94BE07DC
:100090000C94BE070C94BE070C94BE070C94BE07CC
:1000A0000C94BE070C94BE070C94BE07E1143615E1
:1000B0008D16D517B31D58170017811BB31DC51B0F
:1000C0003F1CFA1CE115E615EA15F415FE15081695
:1000D0001216651668166B166E167116741677165C
:1000E000701C731C761C791C7C1C7F1C821C851C5C
:1000F000721D751D781D7B1D7E1D811D841D871D34
:10010000F0F89C8E8783878E9CF8F00000FEFF033A
:1001100003030303070EFCF80000FEFF03030303C1
:1001200003070EFCF80000FFFF00000000000000C5
:10013000FFFF0000FEFF8383838383C7EE7C3800CC
:1001400000F8FC0E07030303070EFCF800003F7FD6
:10015000E0C08080C0E07F3FFFFF0101010101019D
:1001600001FFFF0000FFFF0C0C0C0C1C3E77E3C1ED
:1001700000007FFFC0C0C0C0C0E0703F1F00001F74
:100180003F70E0C0C0C0E0703F1F00007FFFC1C1F2
:10019000C1C1C1E3773E1C00001F3F70E0C0C0C07A
:1001A000E0703F1F000000000001FFFF01000000A1
:1001B000D5F08D14A1C881CFD9F1AF2000760048C9
:1001C0006F6C64696E673A003E52657475726E00BA
:1001D0003E42757920436F72653A003E4275792040
:1001E000456E67696E656572696E673A003E427575
:1001F00079204C696665537570706F72743A003E71
:1002000042757920436172676F20486F6C643A00D1
:100210003E42757920426C6173746572733A003E98
:1002200042757920536865696C643A003E4275797D
:100230002054687275737465723A005E004375727B
:1002400072656E63793A003A53686F703A4F533A69
:100250005631302E35007600486F6C64696E673A0F
:10026000003E52657475726E003E53656C6C20439F
:100270006F72653A003E53656C6C20456E67696E1F
:10028000656572696E673A003E53656C6C204C6917
:100290006665537570706F72743A003E53656C6C8E
:1002A00020436172676F20486F6C643A003E53656B
:1002B0006C6C20426C6173746572733A003E5365D6
:1002C0006C6C20536865696C643A003E53656C6CD5
:1002D0002054687275737465723A005E00437572DB
:1002E00072656E63793A003A53686F703A4F533AC9
:1002F0005631302E350076003E52657475726E00B0
:100300003E53656C6C003E427579005E0043757229
:1003100072656E63793A003A53686F703A4F533A98
:100320005631302E3500596F75204561726E656407
:100330003A004C494F3A4F533A5631302E3500105F
:10034000100000000000000000000000000000009D
:10035000000000000000000000000000000000009D
:10036000000000F00804E46424E42464E4060AF2D3
:100370004200E01F2040CF4D494FC94D4F4020DF84
:100380004442F20A04E46424E42464E40408F0002F
:100390000044DF20404FCD494F49CD4F40201FF052
:1003A0000022FB0402F2B392F292B3F20204F807C5
:1003B00000424F50602726242724262720100F00B4
:1003C00000000FF80402F3B292F293B2F20204FBBF
:1003D0002200000F10202726242724262720504FF4
:1003E00042424242424242424242424242424242ED
:1003F00042444444444444444444444444444444BF
:100400004400FF0000FF000000FF0000000000FFAC
:100410000000FF0000FF000000FF0000000000FFE0
:1004200000E020FE01F1D1D1F1F1F1F1F101FE2066
:10043000E07F404F505555515155555555504F40FF
:100440007FFF01F909090909F90909090909F901F0
:10045000FFFF80FF80808080F08F80808080FF8021
:10046000FF000000000000000000C02010884422AF
:10047000110000000000000000807F0000FF00006D
:100480000000000000F80402F108E412E91494945A
:100490009200000000FF0000FF00FF0007090808AD
:1004A0001800000000FF0000FF00FF000000000037
:1004B0000000000000FF80808F888B8A8A8A8A8AE9
:1004C0008AC94949494949494949494949494949DB
:1004D000C9FF00FE017D75757D7D7D7D7D01FE007E
:1004E000FF919093949515E40405E51595949390E8
:1004F0009128281808080907000007090808182883
:1005000028000000000000000000000000000000C3
:10051000008AFE82AAAAAAAAAAAAAAAAAAAA82FEAD
:100520008A112244881020C0000000000000000052
:1005300000000000FF00007F8000000000000000BD
:100540000092949414E912E408F10204F800000007
:1005500000180808090700FF00FF0000FF00000066
:1005600000000000000000FF00FF0000FF0000008E
:10057000008A8A8A8A8A8A8B888F8080FF0000009E
:1005800000000000E05088888888888850E00000DB
:100590000000F8244FD0506060E06050504F24F8C5
:1005A00000008789F20BEAAAAAEBEAEA0AF2898735
:1005B00000007F404F50515155555555504F407F89
:1005C0000000F80402F1D1D1F1F1F1F1F10204F8E7
:1005D00000007F40404C5E5E4C40405A5A40407F95
:1005E0000000FC0404F4D4D4F4F4F4F4F40404FCA3
:1005F00000007F427E425A4A42525252427E427F1D
:1006000000000000000000000000000000000000EA
:1006100000000000000000000000000000000000DA
:10062000000808FEA1ED2D2DEDA1FE7E616D2D2DA2
:10063000EDA1FEFEA1ED2D2D6D617E52657061690B
:100640007220436F6D70757465723A420052657026
:10065000616972204C696665537570706F72743A87
:10066000420052657061697220436172676F3A425D
:100670000052657061697220426C617374657273B7
:100680003A420052657061697220536865696C6412
:100690003A420052657061697220546872757374D1
:1006A0006572733A42005265626F6F74204C6F6FCF
:1006B000702044726976653A4200416363657373E2
:1006C0002053746172204D61703A4100483A00082D
:1006D000080000000000000000FC82B9A5B5B98246
:1006E000FCE0988681818698E0FF81A59999A58193
:1006F000FFFF819DBDBD9D81FFFF81B9A5A5B9818A
:10070000FF7E81A58181A5817EFF8199BDBD9981F3
:10071000FFFF81BD8595A581FFC381000000008199
:10072000C3003C425A5A520C0076003E4E6F204A9B
:100730006F62003E5472616E73706F727420436119
:1007400072676F003E4573636F7274005E004368AA
:100750006F6F73652041204D697373696F6E3A0046
:100760004C494F3A4F533A5631302E350076003EC1
:1007700052657475726E003E53686F70003E45643A
:1007800069742053686970005E003A4F533A5631DD
:10079000302E3500456E67696E657272696E67202E
:1007A0004661756C7421004C696665537570706F95
:1007B0007274204661696C696E67210043617267DB
:1007C0006F204272656163682100426C61737465D9
:1007D00072204A616D6D65642100536865696C64BF
:1007E0002044697370657273656421005468727582
:1007F00073746572204465677261646564210043A7
:100800006F7265204D697373616C69676E656421F1
:1008100000456E67696E65204D616C66756E637428
:10082000696F6E3A004E6F2053746172204261739B
:100830006520496E2052616E67650076003E4578FE
:10084000697420436F6E736F6C65003E536176650B
:100850002050726F6772657373003E446F636B0064
:100860003E4163746976617465204C6F6F70647289
:1008700069766500005E00537461722042617365A1
:1008800020496E2052616E6765003A004A756D70AE
:1008900073204C65667420546F3A004C494F3A4FB0
:1008A000533A5631302E350005050105080502067C
:1008B0000000000608000700080600000006040506
:1008C00008050305050105080502060000000608E5
:1008D00000140008060000000604050805030707C9
:1008E00001050508050502060000000000060600D7
:1008F000150015000608000000000008060015009D
:1009000015000606000000000006040505080505A0
:10091000030505010508050206000000060800079A
:10092000000806000000060405080503050501058A
:10093000080502060000000608000700080600007F
:100940000006040508050305070105080502060061
:100950000000060600120006080006000806001344
:10096000000606000000060405080503050501054C
:10097000080502060000000608000000080600073F
:10098000000604050505030303090C0F0A0D100BEF
:100990000E11050501050805020600000006080005
:1009A000070008060000000604050805030102040C
:1009B000081020408000000000003E5B4F5B3E3E80
:1009C0006B4F6B3E1C3E7C3E1C183C7E3C181C57FB
:1009D0007D571C1C5E7F5E1C00183C1800FFE7C39F
:1009E000E7FF0018241800FFE7DBE7FF30483A066E
:1009F0000E2629792926407F050507407F05253FDA
:100A00005A3CE73C5A7F3E1C1C08081C1C3E7F14C5
:100A1000227F22145F5F005F5F06097F017F00660F
:100A200089956A606060606094A2FFA29408047E69
:100A3000040810207E201008082A1C08081C2A0818
:100A4000081E101010100C1E0C1E0C30383E3830D2
:100A5000060E3E0E06000000000000005F000000D1
:100A600007000700147F147F14242A7F2A122313FF
:100A700008646236495620500008070300001C2213
:100A800041000041221C002A1C7F1C2A08083E0845
:100A90000800807030000808080808000060600046
:100AA00020100804023E5149453E00427F4000723A
:100AB000494949462141494D331814127F102745B1
:100AC0004545393C4A4949314121110907364949CF
:100AD0004936464949291E000014000000403400F0
:100AE00000000814224114141414140041221408A4
:100AF00002015909063E415D594E7C1211127C7F5C
:100B0000494949363E414141227F4141413E7F4969
:100B10004949417F090909013E414151737F080854
:100B2000087F00417F41002040413F017F0814229F
:100B3000417F404040407F021C027F7F0408107FBD
:100B40003E4141413E7F090909063E4151215E7FF8
:100B500009192946264949493203017F01033F40CB
:100B600040403F1F2040201F3F4038403F63140853
:100B7000146303047804036159494D43007F4141E4
:100B8000410204081020004141417F040201020497
:100B90004040404040000307080020545478407F04
:100BA000284444383844444428384444287F38543E
:100BB00054541800087E090218A4A49C787F0804E5
:100BC000047800447D40002040403D007F102844D0
:100BD0000000417F40007C047804787C080404789D
:100BE0003844444438FC1824241818242418FC7C65
:100BF00008040408485454542404043F44243C404A
:100C000040207C1C2040201C3C4030403C442810AC
:100C100028444C9090907C4464544C4400083641E5
:100C200000000077000000413608000201020402C3
:100C30003C2623263C1EA1A161123A4040207A386E
:100C400054545559215555794121545478412155D1
:100C500054784020545579400C1E52721239555523
:100C60005559395454545939555454580000457CF9
:100C7000410002457D420001457C40F0292429F0D5
:100C8000F0282528F07C545545002054547C547C91
:100C90000A097F4932494949323248484832324A82
:100CA0004848303A4141217A3A42402078009DA09C
:100CB000A07D39444444393D4040403D3C24FF241C
:100CC00024487E4943662B2FFC2F2BFF0929F62051
:100CD000C0887E090320545479410000447D41308E
:100CE00048484A32384040227A007A0A0A727D0D1A
:100CF00019317D2629292F28262929292630484DD2
:100D00004020380808080808080808382F10C8AC20
:100D1000BA2F102834FA00007B000008142A14228D
:100D200022142A14089500220095AA005500AAAAA8
:100D300055AA55AA000000FF00101010FF0014145F
:100D400014FF001010FF00FF1010F010F014141426
:100D5000FC001414F700FF0000FF00FF1414F4045B
:100D6000FC141417101F10101F101F1414141F0050
:100D7000101010F0000000001F101010101F1010B5
:100D80001010F010000000FF1010101010101010C4
:100D900010FF10000000FF140000FF00FF00001F04
:100DA00010170000FC04F414141710171414F404A2
:100DB000F40000FF00F714141414141414F700F7CF
:100DC000141414171410101F101F141414F41410FA
:100DD00010F010F000001F101F0000001F14000092
:100DE00000FC140000F010F01010FF10FF14141499
:100DF000FF141010101F00000000F010FFFFFFFF95
:100E0000FFF0F0F0F0F0FFFFFF0000000000FFFF38
:100E10000F0F0F0F0F38444438447C2A2A3E147EAB
:100E200002020606027E027E02635549416338448F
:100E3000443C04407E201E2006027E020299A5E763
:100E4000A5991C2A492A1C4C7201724C304A4D4DFE
:100E5000303048784830BC625A463D3E49494900E6
:100E60007E0101017E2A2A2A2A2A44445F44444002
:100E7000514A444040444A51400000FF0103E08091
:100E8000FF000008086B6B083612362436060F097F
:100E90000F06000018180000001010003040FF017D
:100EA00001001F01011E00191D1712003C3C3C3CB3
:100EB0000000000000080B0002020201000904000B
:100EC00000010202000005240010010524010101B7
:100ED00004240206052406000107058103100040D2
:100EE00009040100020A0000000705020240000098
:100EF000070583024000000403090412010002EF09
:100F00000201404123368000010102030141726465
:100F100075696E6F204C4C430041726475696E6F49
:100F2000204C656F6E6172646F00FE1F11241FBE3E
:100F3000CFEFDAE0DEBFCDBF11E0A0E0B1E0ECE73B
:100F4000F3E402C005900D92A236B107D9F726E06E
:100F5000A2E6B1E001C01D92AC33B207E1F717E0A1
:100F6000C6E9D7E004C02197FE010E94B121C5392E
:100F7000D107C9F70E9454120C94BC210C940000B4
:100F8000CF92DF92EF92FF920F931F93CF93DF9355
:100F90006C017A018B01C0E0D0E0CE15DF0589F04D
:100FA000D8016D918D01D601ED91FC910190F081F8
:100FB000E02DC6010995892B11F47E0102C021960E
:100FC000ECCFC701DF91CF911F910F91FF90EF9070
:100FD000DF90CF9008952F923F924F925F926F9241
:100FE0007F928F929F92AF92BF92CF92DF92EF92B9
:100FF000FF920F931F93CF93DF93CDB7DEB7279761
:101000000FB6F894DEBF0FBECDBF9B838A836A30D4
:10101000A1F4DC0155962C91559751968D919C9198
:101020005297B8E02B9F800D911D1124EA81FB811E
:10103000928B818B108A1786C1C06D3009F4BEC0B7
:10104000AA81BB8155964C91559754966C905497B4
:101050006E8253967C9053977F825196CD90DC9010
:1010600052971F968D919C91509780389105C4F0AE
:10107000AA81BB8155962C915597422F50E01F961F
:101080008D919C915097B6E02B9F800D911D11245E
:10109000EA81FB81908B8787268921117AC08EC0D7
:1010A000F0E4CF16D10424F79C0155E0459F200DB4
:1010B000311D112412161306DCF6242E312C960154
:1010C000A8E04A9F200D311D11241216130684F644
:1010D000B5E06B9FB0011124FB01EB54F64F2F01DB
:1010E00050E0F201B490553009F4B12C7601B8E02B
:1010F0009B2EB0FC02C08E8001C08F8081100BC07F
:101100006E807F80671007C0B6949A94E20CF31C3F
:101110009110EFCF33C09C012983622F681B6417A5
:1011200098F7B701E62FEE19E41728F520383105B6
:10113000F8F460347105E0F48B01EDEAF9E0A0E128
:101140006A2E7980609ED001A0781124A70D0770C7
:10115000E00FF11DA490BD83AC83AE53BE4F882039
:1011600019F0EC91AE2A03C0A094EC91AE22AC929F
:101170006F5F7F4FD7CF2F5F3F4FCECF5F5F820D27
:10118000931D92012F5F3F4F2901563009F0A9CFDF
:101190006FCF6AEF64039001659F300D11242058D2
:1011A0003F4F2817390754F48A819B81DC01ED9168
:1011B000FC910190F081E02D6AE0099581E090E0DA
:1011C00027960FB6F894DEBF0FBECDBFDF91CF914B
:1011D0001F910F91FF90EF90DF90CF90BF90AF9055
:1011E0009F908F907F906F905F904F903F902F9047
:1011F00008950895089580E090E008950E94B72131
:10120000CF93DF9300D000D0CDB7DEB76115710565
:101210008105910579F09B01AC0169833A834B8389
:101220005C830E94162129813A814B815C810E9456
:101230003A2103C060E070E0CB010F900F900F9057
:101240000F90DF91CF9108953FB7F8948091BB0143
:101250009091BC01A091BD01B091BE0126B5A89BA3
:1012600005C02F3F19F00196A11DB11D3FBFBA2F38
:10127000A92F982F8827820F911DA11DB11DBC0198
:10128000CD0142E0660F771F881F991F4A95D1F75D
:1012900008958F929F92AF92BF92CF92DF92EF927A
:1012A000FF926B017C010E9424094B015C01C11477
:1012B000D104E104F104F1F00E942409DC01CB0126
:1012C00088199909AA09BB09883E9340A105B1056F
:1012D00070F321E0C21AD108E108F10888EE880E07
:1012E00083E0981EA11CB11CC114D104E104F104D7
:1012F00019F7DDCFFF90EF90DF90CF90BF90AF90C8
:101300009F908F9008951F920F920FB60F92112405
:101310002F933F938F939F93AF93BF9380916201DD
:1013200090916301A0916401B09165013091BA017F
:1013300023E0230F2D3720F40196A11DB11D05C018
:1013400026E8230F0296A11DB11D2093BA018093B8
:10135000620190936301A0936401B0936501809151
:10136000BB019091BC01A091BD01B091BE0101965D
:10137000A11DB11D8093BB019093BC01A093BD0141
:10138000B093BE01BF91AF919F918F913F912F91EB
:101390000F900FBE0F901F9018954F925F927F9203
:1013A0008F929F92AF92BF92CF92DF92EF92FF9275
:1013B0000F931F93CF93DF9300D000D0CDB7DEB74C
:1013C00029011C2DA02EB12C9C012A0D3B1D1216AB
:1013D00013060CF0B3C1803891050CF0AFC1FB01CE
:1013E000EE0DF11D1E161F060CF0A8C1603471052C
:1013F0000CF0A4C14115510509F4A0C1E62FE77016
:10140000FE2EFB0177FD3796A3E0F595E795AA95AB
:10141000E1F7AE2F77FF04C0FF2011F0AFEFAE0F62
:1014200097FF05C0EE27FF27E81BF90B02C0E0E09D
:10143000F0E02038310524F020E8722E781A01C03F
:10144000702E7E1A6A2F0A2E000C770BAF3F1CF409
:10145000D62ED09401C0D12C21E03E2D377009F456
:1014600020E0E694E694E694E20E6E0D711D69307C
:1014700071051CF028E0E22EEA1AED183D2D3A0F16
:10148000DC0120E83203A00DB11D1124AE0FBF1FF7
:10149000D09EE00DF11D11244E0F5F1F81E090E002
:1014A0004C010F2C02C0880C991C0A94E2F71330EF
:1014B00009F403C1A0F4113009F4B5C0123009F0E9
:1014C0003DC18FEF889DB001899D700D11246095FD
:1014D00070957C836B835C802E2D230F2BC01A3F6D
:1014E00031F01B3F09F02AC12E2D230F88C02E2D6D
:1014F000230F51C0FA01E00FF11FE491E89D600154
:10150000E99DD00C1124DA82C98237FD07C0FC01A5
:10151000E080EE2DE623CE2AFC01C082F11013C03C
:101520000F5F1F4F0196071528F33F5F4A0D5B1DA4
:10153000A058BF4F321709F401C1CD018E539E4F01
:1015400000E010E0F0CF37305CF7FC01E058FF4FCF
:10155000D080D520CA80DC28D082E2CFFA01E60F05
:10156000F71FE491E89D8001E99D100D11241A8375
:10157000098337FD04C0FC011081012B0083F110A9
:1015800013C06F5F7F4F0196671540F33F5F4A0DB1
:101590005B1DA058BF4F321709F4D0C0CD018E5348
:1015A0009E4F60E070E0F0CF37305CF78C01005860
:1015B0001F4FF801E080EA81EE2AF801E082E1CFD6
:1015C000FA01E00FF11FE491E89DC001E99D900D43
:1015D00011249A83898337FD05C08095FB01908192
:1015E00089238083F11014C00F5F1F4F6F5F7F4FFF
:1015F000071530F33F5F4A0D5B1DA058BF4F3217F0
:1016000009F49CC0BD016E537E4F00E010E0F0CFA6
:10161000373054F7FB01E058FF4F8A818095908165
:1016200089238083E1CFC2018E0F9F1F2E2D230FB0
:10163000321709F483C0BD016E537E4F6B0100E089
:1016400010E0071590F5FC01E00FF11FE491E89D13
:10165000B001E99D700D1124609570957C836B83BA
:10166000FA01E00FF11FE491E89D2001E99D500C83
:1016700011245A82498237FD05C0F6017081672323
:10168000462A4082FF2059F037304CF4F601E058EA
:10169000FF4F70816C8167237A81672B60830F5FB6
:1016A0001F4FFFEFCF1ADF0ACCCF3F5F4A0D5B1D04
:1016B0008A0D9B1DA058BF4FBBCFC72CD12CE40F68
:1016C000F51FAE53BE4F60E870E06C197D09AC1891
:1016D000BD088501000F111F572D2E2DCF93DF93CD
:1016E000ED01EF96EF962296A590C590FF2059F058
:1016F000A89C5001C89C600137302CF4E880D0943D
:10170000ED20EB28E99233233AF0EC90C094EC20E2
:10171000EA28ED920C948D0B11965A9529F72A958B
:1017200051F0572D33951124E00FF11DA60FB11D77
:10173000C60FD11DD9CFDF91CF9111240F900F90FB
:101740000F900F90DF91CF911F910F91FF90EF902D
:10175000DF90CF90BF90AF909F908F907F905F90E1
:101760004F9008952D9A0895BC0180E090E00C946C
:1017700049098FB18095807F669B88601C9B84603F
:101780000895CF93DF93CAE6D1E00E94B82080FD90
:101790000DC069E170E080E090E00E940009DC018A
:1017A000CB018F599F4FAF4FBF4F0BC069E070E027
:1017B00080E090E00E940009DC01CB01C096A11DF1
:1017C000B11D888310926E01219681E0CE36D80734
:1017D000E1F6DF91CF910895893018F5693008F569
:1017E000982F969570E0660F771F660F771F690F29
:1017F000711D80FD0BC06432710511F460E070E072
:10180000FB01E159FE4F8081829509C06432710568
:1018100011F460E070E0FB01E159FE4F80818F70B0
:10182000089580E00895CF93DF93D82FC62F60915D
:101830009801809197010E94EC0BE82FF0E0EE0FE9
:10184000FF1FE05EFE4F20813181F90184913196C6
:10185000E491D81770F4CE1760F4C89FB00111243A
:10186000CB018D0F911D0296F901E80FF91F8491AC
:1018700001C086E1DF91CF910895AF92BF92CF92E0
:10188000DF92EF92FF920F931F93CF93DF9300D0DD
:1018900000D0CDB7DEB78C017B015B0184E0A81AD4
:1018A000B10884E0B694A7948A95E1F7680184E0D2
:1018B000C81AD10894E0D694C7949A95E1F76A2D96
:1018C0008C2D0E94130C89830D5F1F4F24E0169509
:1018D00007952A95E1F76A2D802F0E94130C8A83C1
:1018E00083E0E80EF11C34E0F694E7943A95E1F7D2
:1018F0006E2D8C2D0E94130C8B836E2D802F0E94D9
:10190000130C8C83FE01319694E09E0F8191282F59
:10191000277F19F08D50823020F49E13F7CF81E09D
:1019200001C080E00F900F900F900F90DF91CF914A
:101930001F910F91FF90EF90DF90CF90BF90AF90ED
:101940000895E3E9F1E0658184810E94EC0BE82FC2
:10195000F0E0EE0FFF1FE05EFE4F0190F081E02D02
:10196000319684910895E3E9F1E0658184810E94D4
:10197000EC0BE82FF0E0EE0FFF1FE05EFE4F019052
:10198000F081E02D84910895FC018091C1018111C5
:1019900003C08FEF9FEF08959FB7F89482E0809384
:1019A000E9002091F20030E01216130614F421E051
:1019B00030E02115310559F0289884E68093C00164
:1019C0008091F10080838091F200882319F09FBFFD
:1019D000C90108958BE68093E800F9CF2FB7F894FA
:1019E00083E08093E9009091E800892F807295FF51
:1019F00004C09091F20080E4891B2FBF0895CF931B
:101A0000DF931F92CDB7DEB76983DC01ED91FC91C6
:101A10000280F381E02D41E050E0BE016F5F7F4F17
:101A200009950F90DF91CF91089583E08093E900AD
:101A30008091F200882319F08AE38093E8000895EA
:101A40000E94EE0C90E00895CF93DF931F92CDB7E4
:101A5000DEB7FC018485958597FD05C02FEF3FEF2C
:101A6000358724870BC0CE0101960E94C40C0197D4
:101A700019F4898190E002C08FEF9FEF0F90DF9102
:101A8000CF9108950F931F93CF93DF931F92CDB7FC
:101A9000DEB78C01FC018485958597FF0EC0CE01D1
:101AA00001960E94C40C019719F4298130E002C00C
:101AB0002FEF3FEFF80135872487F801848595855E
:101AC0000F90DF91CF911F910F910895FC018485B4
:101AD000958597FD0BC09FB7F89482E08093E9004D
:101AE0008091F2009FBF90E0019608959FB7F8940F
:101AF00082E08093E9008091F2009FBF90E008951A
:101B00008F929F92AF92BF92CF92DF92EF92FF920D
:101B10000F931F93CF93DF935C016B017A01809148
:101B20000B01882309F45BC08091C101882309F46B
:101B300056C08091BF0180FF05C08091E0008260A7
:101B40008093E000E70110E00AEF83E0882E9AE33B
:101B5000992E2097D9F10E94EE0C81110AC00150F4
:101B600009F43DC061E070E080E090E00E94490926
:101B7000F0CF282F30E0C217D3070CF48C2F4FB7CB
:101B8000F8948092E9009091E80095FF1DC0282FFD
:101B900030E0C21BD30BF601982F915020F08191B9
:101BA0008093F100FACFC20ED31E112319F0909248
:101BB000E80009C08091E80085FD06C09092E80029
:101BC00011E0209709F010E04FBFC3CF1111C3CF30
:101BD0005D9884E68093D9051E141F0444F081E0CB
:101BE00090E0F5019383828380E090E001C0C7011B
:101BF000DF91CF911F910F91FF90EF90DF90CF90E9
:101C0000BF90AF909F908F900895CF92DF92EF9208
:101C10000F93CF93DF93EC01902F41155105A1F164
:101C2000FA0104913196E4904E5F5F4F222319F13F
:101C3000C02ED12CAE2DA695A695A695EA2FF0E044
:101C4000A1E0B0E08E2D877011F4A0E0B0E0AE0FFF
:101C5000BF1FCA9EF001CB9EF00DDA9EF00D11243D
:101C6000933011F4EE0FFF1F2E9FD0012F9FB00D68
:101C700011244A0F5B1F9F3F09F492E0C92E20E018
:101C800030E0CE010E94CD09DF91CF910F91EF900E
:101C9000DF90CF9008952091CC05282329F49091CE
:101CA000CB05982381E009F480E00895009769F05E
:101CB000FC0101900020E9F73197AF01481B590B57
:101CC000BC0182EC95E00C94C00780E090E00895A0
:101CD0008F929F92AF92BF920F931F93CF93DF93F8
:101CE000CDB7DEB7A1970FB6F894DEBF0FBECDBF5C
:101CF00019A2423008F44AE08E010F5D1F4F842E76
:101D0000912CA12CB12CA50194010E946C21E62FED
:101D1000B901CA0101501109EA3014F4E05D01C0B3
:101D2000E95CD801EC93232B242B252B61F7C80108
:101D30000E94560EA1960FB6F894DEBF0FBECDBF1F
:101D4000DF91CF911F910F91BF90AF909F908F9097
:101D500008950F931F93CF93DF938C01C0E0D0E0E1
:101D6000F801EC0FFD1F6491662371F0E091C2054C
:101D7000F091C3050190F081E02D82EC95E009958A
:101D8000892B11F02196ECCFCE01DF91CF911F91DD
:101D90000F9108958FE591E00C94560ECF93DF9349
:101DA0000E94A90EEC010E94CA0E8C0F9D1FDF91AC
:101DB000CF910895CF93DF93682F70E080E090E09B
:101DC0004AE00E94680EEC010E94CA0E8C0F9D1F13
:101DD000DF91CF910895CF93DF93BC0180E090E035
:101DE0004AE00E94680EEC010E94CA0E8C0F9D1FF3
:101DF000DF91CF910895E2ECF1E0A0E0B8E000803F
:101E00000EBC8111012C1197A0FDFDCF0192B9F7F5
:101E10000DB408958091DE0581110DC082E080939C
:101E2000DA0584E08093DB051092DD051092DC0575
:101E300081E08093DE058AED95E008951F920F9270
:101E40000FB60F9211248F939F938091E100909190
:101E5000E100937F9093E10083FF0FC01092E900AF
:101E600091E09093EB001092EC0092E39093ED00E0
:101E70001092C10198E09093F00082FF20C093E09F
:101E80009093E9009091F200992319F09AE39093CE
:101E9000E8009091D905992339F09091D905915096
:101EA0009093D905992389F19091C001992339F034
:101EB0009091C00191509093C001992341F184FF0A
:101EC00010C08091E2008E7E81608093E20080915C
:101ED000E1008F7E8093E1008091BF018E7E806162
:101EE00011C080FF16C08091E2008E7E80618093D9
:101EF000E2008091E1008E7E8093E1008091BF013D
:101F00008E7E81608093BF0104C05D9ACDCF289AF8
:101F1000D6CF9F918F910F900FBE0F901F90189565
:101F200040913A0650913B0620913806309139068F
:101F300042175307B4F49091E8009570E1F3909143
:101F4000E80092FD19C08093F10080913A069091CB
:101F50003B0601968F739927892B19F48EEF809396
:101F6000E80080913A0690913B06019690933B06DB
:101F700080933A0681E0089580E00895DF92EF9221
:101F8000FF920F931F93CF93DF93D82E8A017B018B
:101F9000E40EF51EEB01CE15DF0571F0D7FE03C090
:101FA000FE01849101C088810E94900F21968111C9
:101FB000F2CF8FEF9FEF01C0C801DF91CF911F914A
:101FC0000F91FF90EF90DF900895615030F02091D5
:101FD000F100FC0120830196F8CF289884E68093D5
:101FE000C00108950F931F93CF93DF931F92CDB736
:101FF000DEB782E0898342E450E065EB7EE080E872
:102000000E94BE0F0E940A0FDC0112960D911C91D6
:1020100013970115110569F0D801ED91FC9102802B
:10202000F381E02DBE016F5F7F4FC801099597FFD7
:1020300007C089810F90DF91CF911F910F91089573
:10204000F80100851185E5CF1F920F920FB60F9210
:102050001124CF92DF92EF92FF920F931F932F9351
:102060003F934F935F936F937F938F939F93AF9320
:10207000BF93EF93FF93CF93DF93CDB7DEB76C970A
:10208000DEBFCDBF1092E9008091E80083FFEDC173
:1020900068E0CE0145960E94E50F82EF8093E8004C
:1020A0008D8987FF05C09091E80090FFFCCF03C0A9
:1020B0009EEF9093E800982F907609F0C6C09E8915
:1020C0002F89188D91110CC0803829F48091370622
:1020D0008093F10002C01092F1001092F10048C10B
:1020E000422F50E0512B913051F4811141C14130C8
:1020F000510509F03DC1809137068D7F0BC09330AB
:1021000061F4811135C14130510509F031C180912F
:1021100037068260809337062BC1953041F4809159
:10212000E80080FFFCCF20682093E30021C19630B7
:1021300009F05FC0EB8CFC8C1092E90010923B061A
:1021400010923A06123091F5109239061092380624
:102150000E94F20F99E0BE016F5F7F4FDB01E92F14
:102160001D92EA95E9F799831A8391E09E8390EA9C
:1021700098879AEF998720913A0630913B06275F1E
:102180003F4F3C832B838D831092E90010923B06D6
:1021900010923A06F0923906E092380649E050E093
:1021A00080E00E94BE0F0E94F20FE2C0F09239065A
:1021B000E09238060E940A0FDC011296ED90FC9026
:1021C0001397E114F10409F4C0C0D701ED91FC911B
:1021D0000480F581E02DBE016B5E7F4FC70109953C
:1021E000009719F00CF0C4C0C7C0F701E084F18477
:1021F000E8CF973009F4C0C0983021F481E0809393
:10220000F100B6C0993009F0B3C0837009F0B4C0D2
:10221000E9E5F1E081E021E036E39081992361F086
:102220008093E9002093EB0091919093EC00309320
:10223000ED008F5F873089F78EE78093EA00109278
:10224000EA008F898093C10193C08B8D9C8D109281
:10225000E90010923B0610923A069093390680935B
:102260003806898D811156C08E899D89913A59F41D
:10227000813209F081C047E050E064E071E080E025
:102280000E94BE0F75C0913209F076C0833289F486
:10229000888D90E0982F88272F89822BA0E0B0E0CE
:1022A00080930C0190930D01A0930E01B0930F0148
:1022B0005FC0803269F48091E80082FFFCCF67E064
:1022C00084E091E00E94E50F8BEF8093E80006C068
:1022D000823209F04DC08F8980930B0180913606C0
:1022E000882319F0EEEFFAE002C0E0E0F8E0809118
:1022F000040190910501A0910601B0910701803B76
:102300009440A105B10509F07BC080910B0180FFCD
:1023100093C076C00E940A0FDC0112960D911C91A9
:1023200013970115110541F1D801ED91FC91019030
:10233000F081E02DBE016B5E7F4FC80109958111D0
:1023400017C0F80100851185ECCF113009F44EC09B
:10235000133091F48F89882309F445C0823081F4C9
:1023600040E860E189E19FE00E942F20882321F06E
:102370008EEF8093E80079C081E28093EB0075C016
:10238000813029F440E86BE08DE09FE0EDCF8330B1
:1023900099F70E940A0FDC011296ED90FC901397BA
:1023A0008E010F5F1F4F6801E114F10479F0D7012E
:1023B000ED91FC910680F781E02DB801C7010995E8
:1023C000080F111DF701E084F184EECFD8011C92B3
:1023D000F60101900020E9F73197BF016C197D09E2
:1023E00040E0C601C1CF67EF7EE002C06BEF7EE048
:1023F0006115710509F2FB01449150E080E840CF7E
:102400000FB6F894A8958091600088618093600071
:10241000109260000FBEA895EE3F2AE0F20739F057
:102420008091FE0A9091FF0A91838083A1CF109240
:10243000FF0A1092FE0A9CCFEE3F8AE0F80731F0C7
:10244000808191819093FF0A8093FE0A87E797E746
:10245000918380839BE088E10FB6F894A8958093E0
:1024600060000FBE9093600083CF6C960FB6F89417
:10247000DEBF0FBECDBFDF91CF91FF91EF91BF9136
:10248000AF919F918F917F916F915F914F913F910C
:102490002F911F910F91FF90EF90DF90CF900F90B1
:1024A0000FBE0F901F901895CF93DF93CDB7DEB777
:1024B00028970FB6F894DEBF0FBECDBF789484B5D1
:1024C000826084BD84B5816084BD85B5826085BD30
:1024D00085B5816085BD80916E00816080936E00BE
:1024E00010928100809181008260809381008091B0
:1024F0008100816080938100809180008160809361
:102500008000809191008260809391008091910081
:102510008160809391008091900081608093900011
:102520008091C10084608093C1008091C10082606D
:102530008093C1008091C10081608093C10080912F
:10254000C30081608093C3008091C000826080934B
:10255000C0008091C20081608093C20080917A00A7
:10256000846080937A0080917A00826080937A0000
:1025700080917A00816080937A0080917A008068EF
:1025800080937A001092C101109237061092BF0119
:102590008091D70081608093D70080EA8093D80033
:1025A00089B5806189BD89B5826089BD09B400FEA5
:1025B000FDCF61E070E080E090E00E9449098091E9
:1025C000D8008F7C80618093D8008091E000807F6C
:1025D0008093E0008091E1008E7E8093E1008DE0A9
:1025E0008093E200559A209AEEEFFFE7859194914F
:1025F0008B3F9C4D19F481E08093360681EC8093EB
:102600007C0085B1806F85B984B1877E84B984B13F
:10261000876E84B95E9A5F988AB1806D8AB9769A1E
:102620006E9881B3806F81BB899880B38D7080BBB9
:1026300080E58CBD81E08DBD85E090E00E94B40B0B
:102640005F9A85E090E00E94B40B5E985C98E0EBA6
:10265000F1E08DE08E0F94919EBD00000DB407FE59
:10266000FDCF31968E13F7CF5C9A81E8809364009A
:102670008091650081608093650080E00E94FB0E80
:102680000E94B90B87FF24C05C9885EA8EBD0000CC
:102690000DB407FEFDCF5C9A2E982F982D9880914F
:1026A000640080628093640081E083BF889513BEDC
:1026B000FCCF2D980E94B90B8478843871F00E9469
:1026C000B90B8471843131F188EC90E00E94B40B35
:1026D0000E94B90B82FDEDCF3AC00E94B20B88EC8C
:1026E00090E00E94B40B2F9882E090E00E94242199
:1026F0008F3F29F06FEF82E090E00E942C2184EF61
:1027000091E00E94B40B2F9A0E94B90B8478843810
:10271000D9F3D5CF0E94B20B88EC90E00E94B40BA5
:102720002E9882E090E00E942421882329F060E026
:1027300082E090E00E942C2184EF91E00E94B40B93
:102740002E9A0E94B90B84718431D9F3BDCF0E94B7
:10275000B20B82E090E00E942421882331F03E9A5F
:102760003F9A81E080939D0104C010929D013E98A4
:102770003F9881E090E00E94242181FF8BC02E9839
:1027800000EF1FEF78E0A72EB12C0E94B90B86FF57
:1027900004C02E9A2F9A2D9A7DC00430110511F491
:1027A0002E9A2F9881E00E94FB0E980117FF04C01B
:1027B00022273327201B310B27703327C80117FD31
:1027C000079663E0959587956A95E1F717FF05C031
:1027D0000197A501421B530B9A017C01F694FE2C34
:1027E000EE24F794E79440E050E03501621A730A52
:1027F000B70160587F4F4B018F3F7FEF970744F43D
:102800000196485A5F4F7401403B510589F723C038
:10281000D701AA5ABD4F60E070E08F3FEFEF9E07EF
:1028200011F40C94D61DFB01E40FF51FE050FF4F8F
:10283000E4916D01C818D908CE0CDF1CF0E01F012F
:10284000022E01C0220C0A94EAF7F60150802528D6
:1028500020820C94D61D80E00E94FB0E8FE090E059
:102860000E94B40B0F5F1F4F0931110509F08DCF86
:102870002F9A2D9880E991E00E94B40B0E94B20B30
:10288000E091C605F091C7050190F081E02D86EC3E
:1028900095E0099582E390E00E94B40B0E94B90B89
:1028A0008111F8CFE2ECF1E081118FEF00248193E8
:1028B0008193819381930394D1F71092D405109260
:1028C000D3051092D2051092D105809164008E7FBD
:1028D0008093640080917A00806480937A00809174
:1028E0007A0086FDFCCF00917800109179000E945B
:1028F000240920E030E0980111270027600F711FA4
:10290000821F931F611571058105910511F00E94C9
:102910001B218091640081608093640081E2809338
:10292000CD053AE0432E512C8FB7F89440916201C7
:102930005091630160916401709165018FBF809136
:10294000CE05F42FF81B8F2F9091CF05992331F0EE
:10295000F093D0051092CF050C94CC1D9091CD052D
:10296000F91758F48F5F891710F00C94CC1D81E093
:1029700083BF889513BE0C94CC1D81E08093CF0556
:102980004093CE058091C9059091CA050196909318
:10299000CA058093C9058091CB058093CC050E9420
:1029A000B90B8093CB05E0910201F09103013197BF
:1029B000EC30F10510F00C94B31DEA5AFF4F0C9463
:1029C000B1210E94C10B62E070E080E090E00E94C3
:1029D0000009EFE6F1E0119221E0E339F207D9F7BF
:1029E00080918101807F8160809381018091850148
:1029F000807F836080938501613069F038F06230B8
:102A000081F480918901807F866009C0809189016D
:102A1000807F846004C080918901807F856080937D
:102A2000890180918D01807F826080938D0184E691
:102A30008093B40128E130E0309394012093930116
:102A400028E230E0309396012093950195E0909331
:102A5000970194E09093980180939C0183E0809388
:102A600001018093000187E090E0C5C11092D2057A
:102A70001092D1051092D4051092D3058BE998E0FD
:102A80000E94CE0E8CE898E00E94A90E8AE691E0A2
:102A90000E94560E8AE898E00E94A90E80910101DA
:102AA0000E94DA0E8091B301882321F087E798E035
:102AB0000E94CE0E8091B201882319F085E798E03C
:102AC00002C084E798E00E94CE0E8091B20181306E
:102AD00059F038F0823059F0833069F48DE398E092
:102AE00008C080E698E005C08AE598E002C08BE463
:102AF00098E00E94CE0E8091B201833020F48BE3E7
:102B000098E00E94CE0E80E10E944B0E882331F0A7
:102B10008091B201833010F40C94F31D80E80E9480
:102B20004B0E882329F08091B20181110C94F81D7D
:102B300088E00E944B0E882309F49FC08091B20167
:102B4000813009F48AC050F0833009F096C084E0E7
:102B500090E090930301809302018DC08091B901B0
:102B6000811179C0809101018150809301011092FF
:102B7000B3019091B001933028F0882311F40C94A4
:102B8000FD1D0FC0882311F40C94FD1D6AE070E058
:102B900080E090E00E940009672B682B692B09F008
:102BA0004CC06AE070E080E090E00E940009FB0108
:102BB0003197E730F10508F040C0EE59FF4F0C9413
:102BC000B12181E08093B90183E035C082E0809338
:102BD000B90131C084E00E94AC1F882371F183E009
:102BE0008093B90184E027C085E00E94AC1F882350
:102BF00021F184E08093B90185E01DC086E00E9448
:102C0000AC1F8823D1F085E08093B90186E013C022
:102C100087E00E94AC1F882381F086E08093B90191
:102C200087E009C088E00E94AC1F882331F087E06C
:102C30008093B90188E00E94C51F809101018F3FF8
:102C4000E1F4809100018F5F809300018093010186
:102C50000E94C10B12C082E00BC09091B301992376
:102C600039F043E050E0509303014093020103C068
:102C70008093B10102C01092B20184E00E944B0E19
:102C8000882341F084E090E0909303018093020157
:102C90001092B2018091B101813019F0823021F09F
:102CA0002AC085E298E025C081E198E00E94CE0E1E
:102CB000E091B9018E2F90E0FC013197E730F105EA
:102CC000D0F4E759FF4F0C94B1218FEF97E011C07A
:102CD0008CEE97E00EC08AED97E00BC08AEC97E08F
:102CE00008C08CEB97E005C087EA97E002C084E952
:102CF00097E00E94A90E8091B1018150823008F0C6
:102D000032C78091C9059091CA056CE370E00E94BA
:102D10009D21892B09F425C726C71092D205109250
:102D2000D1051092D4051092D3058AE691E00E9455
:102D3000560E8AE897E00E94CE0E8091B201882359
:102D400029F088E897E00E94CE0E02C00E94CA0EC9
:102D50008091B201813049F028F0823051F48FE641
:102D600097E005C08DE797E002C087E797E00E94F3
:102D7000CE0E8091B201823020F48DE697E00E9461
:102D8000CE0E80E10E944B0E882329F08091B20183
:102D9000823008F47EC780E80E944B0E882321F021
:102DA0008091B201811179C788E00E944B0E88237F
:102DB000C1F08091B201813049F028F0823089F46D
:102DC00082E090E008C089E090E005C050920301E5
:102DD0004092020104C0909303018093020110927B
:102DE000B20184E00E944B0E882309F4BCC6109205
:102DF000B20182E090E09093030180930201B3C698
:102E00001092D2051092D1051092D4051092D305DC
:102E100080E697E00E94CE0E8EE497E00E94CE0EF0
:102E20008091B201882329F08CE497E00E94CE0EB5
:102E300002C00E94CA0E8091B201813049F028F090
:102E4000823051F48BE297E005C084E497E002C041
:102E500083E397E00E94CE0E8091B201823020F48D
:102E600089E297E00E94CE0E80E10E944B0E8823FB
:102E700029F08091B201823008F413C780E80E94E3
:102E80004B0E882321F08091B20181110EC788E09A
:102E90000E944B0E882309F466C682E090E090936E
:102EA0000301809302018091B2018093B0017AC046
:102EB00010919701709098018091C9059091CA0571
:102EC00065E070E00E949D21892B31F48091990189
:102ED0008F5F8370809399019FE1892E912C2CEF55
:102EE000E22EFF24FA94612F70E078876F83272CFD
:102EF000312CAA24AA94BA2C8CEFC82EDD24DA94A3
:102F0000612E6E0C8F8198858E0D9F1D9E838D8303
:102F1000672D6C0D862D0E94EC0B9091B9019923C1
:102F2000C1F02091660130916701ED81FE81E217C9
:102F3000F30779F42091680130916901A601420DEF
:102F4000531D4217530729F490919901923008F4C8
:102F50008AE002E0282F4FEC56E0B501C4010E9440
:102F6000050EFFEFCF1ADF0A28E0A20EB11C45E0E4
:102F7000C416D10469F65FEFE51AF50A68E0860E1B
:102F8000911C75E0E716F10409F0B3CF88E00E94C8
:102F90004B0E882309F4E7C584E090E09093030189
:102FA000809302011092B201DEC52091930130910D
:102FB0009401F90174E0F695E7957A95E1F7FE83BF
:102FC000ED8380919501909196011C01E4E0369487
:102FD0002794EA95E1F78F702F70FFEE8F2E9924DA
:102FE0009A94821A9108ABEFEA2EFF24FA94BFEE6E
:102FF0006B2E77247A94681A710853016DEFC62EF0
:10300000DD24DA941D811E0D6C2D620D812F0E942E
:10301000130C0AEF282F4FE353E0B501C4010E94BF
:10302000050EFFEFCF1ADF0A20E1A20EB11C43E02C
:10303000C416D10449F75FEFE51AF50A60E1860E80
:10304000911C75E0E716F104C1F6198281E08A83CC
:103050001B8282E08C8380919A01811113C0E1E28E
:10306000F6E00491E2E2F6E0E49052E0C52E20E0C2
:1030700030E043E256E06BE170E08BE390E00E94C9
:10308000CD0921C08091C9059091CA05B7010E9460
:103090009D21892B31F4809199018F5F83708093FA
:1030A000990180919901E1E0F0E0EC0FFD1FE80F3C
:1030B000F11D02E0208141E256E06BE170E08BE31C
:1030C00090E00E94050E20919B01243050F430E0E6
:1030D000F901E45EFE4F4081F901E85EFE4F808118
:1030E00002C080E040E0609195017091960194E00B
:1030F000769567959A95E1F7680F80919301909185
:10310000940124E0969587952A95E1F7840F0E9413
:10311000130CD82EE0909301F090940134E0F694D3
:10312000E7943A95E1F7AE2C009195011091960144
:1031300044E0169507954A95E1F7B02E602F8E2D45
:103140000E94130CC82E10929A010E94B90B87FF9F
:103150001CC0609195017091960162507109809137
:103160009301909194010E943D0C882361F080911D
:103170009501909196010297909396018093950105
:1031800081E080939A0110929B010E94B90B84FF09
:103190001DC060919501709196016E5F7F4F809187
:1031A0009301909194010E943D0C882361F08091DD
:1031B00095019091960102969093960180939501C6
:1031C00081E080939A0181E080939B010E94B90B7A
:1031D00086FF1CC0609195017091960180919301CA
:1031E0009091940102960E943D0C882361F0809199
:1031F000930190919401029690939401809393018E
:1032000081E080939A0182E080939B010E94B90B38
:1032100085FF1CC06091950170919601809193018A
:103220009091940102970E943D0C882361F0809157
:10323000930190919401029790939401809393014C
:1032400081E080939A0183E080939B010E94B90BF7
:103250008C708C3039F486E090E090930301809379
:10326000020138C288E00E944B0E882309F470C026
:103270000E94B30C982E0E94A10C98E0C91619F078
:10328000EEE0CE125CC0A1100CC01091970111505D
:1032900060919801812F0E94EC0B823008F009C5E3
:1032A0004EC0FF24292D30E021503109E216F306EB
:1032B000A9F4F09098010091970111E0100F6F2D83
:1032C000812F0E94EC0B8823D1F16F2D8FEF800F9F
:1032D0000E94EC0B813009F001C531C0B11015C05E
:1032E000F09098011FEF1F0D00919701612F802F23
:1032F0000E94EC0B882319F16F2D8FEF800F0E9435
:10330000EC0B813009F0FBC41AC0112790E0019743
:1033100008171907A1F4F090980111E01F0D009112
:103320009701612F802F0E94EC0B882341F06F2DB5
:103330008FEF800F0E94EC0B813009F0FAC4FDE0A2
:10334000CF1206C082E090E09093030180930201C7
:1033500084E00E944B0E882309F4E0C00E94B30C65
:103360000E94A10C8091B9018130D9F423E1D212DD
:1033700018C08091970190E020916601309167011B
:103380002817390771F48091980190E02091680125
:10339000309169012817390721F41092B901109270
:1033A000B1018091B9018230D9F447E0D41218C03C
:1033B0008091970190E02091660130916701281774
:1033C000390771F48091980190E020916801309163
:1033D00069012817390721F41092B9011092B1013F
:1033E0008091B9018330D9F457E0D51218C080918B
:1033F000970190E020916601309167012817390705
:1034000071F48091980190E02091680130916901F8
:103410002817390721F41092B9011092B101809157
:10342000B9018430D9F467E0D61218C080919701B1
:1034300090E020916601309167012817390771F4F7
:103440008091980190E020916801309169012817DE
:10345000390721F41092B9011092B1018091B9019C
:103460008530D9F475E1D71218C08091970190E0AA
:1034700020916601309167012817390771F4809116
:10348000980190E02091680130916901281739076F
:1034900021F41092B9011092B1018091B9018630E6
:1034A000D9F484E1D81218C08091970190E020915E
:1034B0006601309167012817390771F480919801EE
:1034C00090E020916801309169012817390721F4B3
:1034D0001092B9011092B1018091B9018730F1F4D5
:1034E00097E0D9121BC08091970190E0209166016E
:1034F000309167012817390709F088C48091980135
:1035000090E020916801309169012817390709F08E
:103510007DC41092B9011092B10178C4EDE0CE12D1
:103520000CC01092D2051092D1051092D4051092C1
:10353000D3058AEB96E00E94A90EF3E1DF1225C0C5
:103540008091B901813009F0C5C0109198010091B6
:103550009701612F802F0E94EC0B833009F0BAC0D5
:10356000802F90E02091660130916701281739077C
:1035700009F0B0C0612F70E08091680190916901FD
:103580008617970709F0A6C0E5C327E0D21231C01D
:103590008091B901823009F03DC4109198010091E9
:1035A0009701612F802F0E94EC0B823009F032C40A
:1035B000802F90E02091660130916701281739072C
:1035C00009F028C4612F70E0809168019091690131
:1035D0008617970709F01EC41092D2051092D105E4
:1035E0001092D4051092D30583E996E00E94A90EAB
:1035F00011C445E1D41225C08091B901853009F08C
:1036000069C01091980100919701612F802F0E944D
:10361000EC0B863009F05EC0802F90E020916601AF
:10362000309167012817390709F054C0612F70E005
:1036300080916801909169018617970709F04AC047
:1036400094C354E1D51222C08091B901863009F0AB
:1036500041C01091980100919701612F802F0E9425
:10366000EC0B8730B9F5802F90E020916601309106
:1036700067012817390771F5612F70E080916801A3
:10368000909169018617970729F57AC367E0D612EA
:1036900021C08091B9018730E9F41091980100911F
:1036A0009701612F802F0E94EC0B883099F4802FB6
:1036B00090E020916601309167012817390751F495
:1036C000612F70E0809168019091690186179707DA
:1036D00009F461C31092D2051092D10586E390E0FF
:1036E0009093D4058093D3058CEC96E00E94A90EAC
:1036F00060919C0170E080E090E04AE00E94680EDA
:1037000032C28091B0018230E9F11092D20510925C
:10371000D1051092D4051092D30582E393E00E9464
:10372000CE0E1092D2051092D10589E190E09093CF
:10373000D4058093D30586E293E00E94A90E6091A0
:10374000A80170E080E090E04AE00E94680E88E006
:103750000E944B0E882309F406C287E090E0909304
:103760000301809302011092B2012091A80180917F
:10377000A6019091A701820F911D9093A7018093BC
:10378000A601F1C187E090E009CC1092D205109219
:10379000D1051092D4051092D3058AE691E00E94DB
:1037A000560E87E193E00E94CE0E8DE093E00E94DA
:1037B000A90E8091A6019091A7010E94EB0E809125
:1037C000B201882329F08BE093E00E94CE0E02C064
:1037D0000E94CA0E8091B201813049F028F08230F7
:1037E00051F488EF92E005C086E093E002C080E0EB
:1037F00093E00E94A90E8091B201823020F486EFFE
:1038000092E00E94CE0E80E10E944B0E882329F0A8
:103810008091B201823008F4CBC280E80E944B0E46
:10382000882321F08091B2018111C6C288E00E94F4
:103830004B0E8823A9F08091B201813049F028F025
:10384000823071F483E090E005C08CE090E002C02B
:103850008BE090E090930301809302011092B201FB
:1038600084E00E944B0E882309F47DC11092B201BE
:10387000E3E0F0E0F0930301E093020174C11092E1
:10388000D2051092D1051092D4051092D3058AE684
:1038900091E00E94560E87EE92E00E94CE0E8DEDD2
:1038A00092E00E94A90E8091A6019091A7010E942A
:1038B000EB0E8091B201882329F08BED92E00E94FB
:1038C000CE0E02C00E94CA0EE091B2018E2F90E08F
:1038D00088309105F0F4FC01E059FF4F0C94B121C0
:1038E0008BEC92E014C08DEB92E011C08DEA92E077
:1038F0000EC08BE992E00BC088E892E008C085E733
:1039000092E005C089E692E002C081E692E00E9462
:10391000A90EE091B201E73071F1F0E0E755FE4FFA
:10392000608170E06150710988F4E091C205F09106
:10393000C3050190F081E02D6DE282EC95E00995E0
:103940004AE061E070E080E090E005C0072E000CE6
:10395000880B990B4AE00E94680E0E94CA0E88E507
:1039600092E00E94A90EE091B201F0E0E256FE4F13
:1039700080810E94DA0E8091B201873020F486E5C2
:1039800092E00E94CE0E80E10E944B0E882329F027
:103990008091B201873008F413C280E80E944B0E78
:1039A000882321F08091B20181110EC288E00E942B
:1039B0004B0E882309F481C08091B201873009F44D
:1039C00076C090E0FC01E256FE4F2081222309F4EC
:1039D00074C0215020832091A6013091A70121506D
:1039E0003109FC01E755FE4F8081A901480F511DA7
:1039F000CA01B2C01092D2051092D1051092D4051E
:103A00001092D3058AE691E00E94560E87E492E078
:103A10000E94CE0E8DE392E00E94A90E8091A60135
:103A20009091A7010E94EB0E8091B201882309F4C6
:103A300051C08BE392E00E94CE0EE091B2018E2F36
:103A400090E08830910508F448C0E091B201E83078
:103A500091F0F0E0E755FE4F80810E94DA0E8FEB87
:103A600091E00E94A90EE091B201F0E0E256FE4F13
:103A700080810E94DA0E8091B201873020F48DEBB4
:103A800091E00E94CE0E80E10E944B0E811144C055
:103A900080E80E944B0E811145C088E00E944B0EC9
:103AA000882359F0E091B201E73009F040C010924C
:103AB000B201509203014092020184E00E944B0E39
:103AC000882309F450C01092B20150920301409231
:103AD000020149C00E94CA0EB0CFFC01E858FF4F56
:103AE0000C94B1218CE292E014C08FE192E011C0FD
:103AF00080E192E00EC08FEF91E00BC08DEE91E07F
:103B000008C08BED91E005C080ED91E002C088EC2B
:103B100091E00E94A90E99CF8091B201873008F4FC
:103B200057C1B6CF8091B201811156C1B6CF8091F5
:103B3000A6019091A701F0E0DF01A755BE4F2C919F
:103B400030E08217930708F4B8CFE256FE4F408169
:103B50004F5F4083821B930B9093A7018093A60134
:103B6000ACCF1092B1018091B9012091C90530917B
:103B7000CA05882309F434C1C9016EE170E00E94CE
:103B80009D21892B09F02CC180919C018550809347
:103B90009C0181E00E94FB0E80E090E0892B11F4F3
:103BA0000C9494140E9400000C949114211531057A
:103BB00081F0FB01E40FF51FE050FF4FE491F0E0CE
:103BC000062C02C0F595E7950A94E2F7DC90ED2902
:103BD000EC936F5F7F4F11966835710511F00C946F
:103BE0000D140C9400148F5F8093B2010C948E1509
:103BF00081508093B2010C94981509EA11E085E098
:103C000090E0A0E0B0E06C017D0145E0C40ED11C65
:103C1000E11CF11C4C015D018C159D05AE05BF0535
:103C200054F465E070E080E090E00E940009860EA8
:103C3000971EA81EB91EF80181928F01D701C601F7
:103C400088329105A105B105F1F681E08093B301B9
:103C50008091B001882351F0813081F464E070E0FC
:103C600080E090E00E9400096F5F09C065E070E0AD
:103C700080E090E00E9400096B5F01C060E060930B
:103C8000A80188E090E090930301809302010C94D6
:103C90001D168F5F8093B2017EC881508093B20160
:103CA00083C88F5F8093B201E9C881508093B201CD
:103CB000EEC8109397010E94B30C50E1859FC0019C
:103CC0001124089790939401809393010E94A10C72
:103CD000869560E1869FC00111240FC01093970163
:103CE00088E090E090939401809393010E94A10C4E
:103CF000869570E1879FC0011124089615C0109326
:103D000098010E94B30C8695E0E18E9FC0011124BA
:103D1000089690939401809393010E94A10CF0E186
:103D20008F9FC0011124089790939601809395016D
:103D300006CB109398010E94B30C869520E1829FD8
:103D4000C00111240896909394018093930188E018
:103D500090E0EACF1092D2051092D1051092D405CE
:103D60001092D30586EA96E020C01092D2051092F8
:103D7000D1051092D4051092D30582E696E015C0C5
:103D80001092D2051092D1051092D4051092D3054D
:103D90008DE496E00AC01092D2051092D1051092DF
:103DA000D4051092D3058BE396E00E94A90E92CC25
:103DB0008F5F8093B20131CD81508093B20136CDB7
:103DC0008F5F8093B201E9CD81508093B201EECD37
:103DD0008F5F8093B2015CCE81508093B2015DCE43
:103DE000C9016EE170E00E949D21892B09F0D1CEBE
:103DF00080919C0184361CF48B5F80939C018091A0
:103E00009C0185360CF4C5CE84E6C1CE4DE0C412CB
:103E1000BFCB87CB8091B901833041F510919801D8
:103E200000919701612F802F0E94EC0B8430F1F4F8
:103E3000802F90E0209166013091670128173907A3
:103E4000A9F4612F70E08091680190916901861753
:103E5000970761F41092D2051092D1051092D40503
:103E60001092D30583E896E00E94A90E8091B901D3
:103E7000843009F00ECC1091980100919701612FC8
:103E8000802F0E94EC0B853009F003CC802F90E04E
:103E900020916601309167012817390709F0F9CBA5
:103EA000612F70E0809168019091690186179707F2
:103EB00009F0EFCB1092D2051092D1051092D405E3
:103EC0001092D30581E796E00E94A90EE2CB0F93F2
:103ED0001F93CF93DF938C0181E090E00E94242117
:103EE00080FF32C08AE090E00E9424219FEF980F6B
:103EF0009E3F50F522E330E0D80150963C932E933C
:103F00001F9728E330E052963C932E935197CBE0D5
:103F1000D0E0D801ED91FC910190F081E02D682F67
:103F2000C8010995CE010E9424212196C131D105F5
:103F300081F780E00E94FB0E88EE93E0DF91CF9145
:103F40001F910F910C94B40BDF91CF911F910F91A2
:103F5000089504970C94671F1F93CF93DF93182F36
:103F6000D0E0C0E06C2F8D2F0E94EC0B811741F048
:103F7000CF5FC930B9F7DF5FD93099F780E001C072
:103F800081E0DF91CF911F910895EF92FF920F93FF
:103F90001F93CF93DF93E82EC0E0D0E0F12C00E038
:103FA00010E0602F8C2F0E94EC0B8E1121C06AE074
:103FB00070E080E090E00E940009672B682B692B7D
:103FC000B9F4D0936701C09366011093690100931F
:103FD0006801FF24F3942196C930D10501F7FF2031
:103FE000D9F2DF91CF911F910F91FF90EF9008953B
:103FF0000F5F1F4F09301105A1F6EDCFE6EEF5E09A
:104000001382128288EE93E0A0E0B0E0848395836F
:10401000A683B78386E391E0918380838FEF9FEF40
:1040200095878487E2ECF5E013821282118612866E
:1040300080E1838710861782158688E491E091835A
:10404000808386E591E095838483108A1786128A9F
:10405000118A81E0838B148A858B168A0895CF920A
:10406000DF92EF92FF920F931F93CF93DF931F92F4
:10407000CDB7DEB7182F062FE42E862F880F8E5F60
:1040800099830E94900F83E00E94900FF12EC12E21
:104090009981D92E8C2D8F19801798F4F601E7FE9F
:1040A00002C0849101C080810E94900F182F80E08F
:1040B0000E94900F8123FFEFCF1ADF0A8111EACF10
:1040C00001C081E00F90DF91CF911F910F91FF9080
:1040D000EF90DF90CF9008958F929F92AF92BF9212
:1040E000CF92DF92EF92FF92CF93DF93EC01688142
:1040F00079818A819B81611571058105910521F482
:1041000064E279ED8BE597E02DE133EF41E050E09B
:104110000E943A2149015A019B01AC01A7EAB1E48E
:104120000E9459216B017C01ACEEB4EFA501940112
:104130000E946721DC01CB018C0D9D1DAE1DBF1DB2
:10414000B7FF03C00197A109B04888839983AA8368
:10415000BB839F77DF91CF91FF90EF90DF90CF905F
:10416000BF90AF909F908F9008950E946C2008950B
:1041700080E191E00E946C200895A0E0B0E080937F
:10418000100190931101A0931201B09313010895AF
:104190008F929F92AF92BF92CF92DF92EF92FF9257
:1041A000CF93DF93EC01688179818A819B816115CE
:1041B00071058105910521F464E279ED8BE597E0C5
:1041C0002DE133EF41E050E00E943A2149015A01CC
:1041D0009B01AC01A7EAB1E40E9459216B017C016B
:1041E000ACEEB4EFA50194010E946721DC01CB0184
:1041F0008C0D9D1DAE1DBF1DB7FF03C00197A1090A
:10420000B04888839983AA83BB83BC01CD019F7783
:10421000DF91CF91FF90EF90DF90CF90BF90AF9064
:104220009F908F9008950E94C820089584E191E0A6
:104230000E94C82008956093140170931501809323
:104240001601909317010895F999FECF92BD81BD93
:10425000F89A992780B50895262FF999FECF1FBAAD
:1042600092BD81BD20BD0FB6F894FA9AF99A0FBE9F
:1042700001960895052E97FB1EF400940E9451218B
:1042800057FD07D00E946C2107FC03D04EF40C941C
:10429000512150954095309521953F4F4F4F5F4F9D
:1042A000089590958095709561957F4F8F4F9F4FA2
:1042B00008950E948E21A59F900DB49F900DA49FFC
:1042C000800D911D11240895B7FF0C9459210E946F
:1042D0005921821B930B0895A1E21A2EAA1BBB1B26
:1042E000FD010DC0AA1FBB1FEE1FFF1FA217B307C2
:1042F000E407F50720F0A21BB30BE40BF50B661FD8
:10430000771F881F991F1A9469F76095709580959B
:1043100090959B01AC01BD01CF010895A29FB00112
:10432000B39FC001A39F700D811D1124911DB29FE9
:10433000700D811D1124911D0895AA1BBB1B51E115
:1043400007C0AA1FBB1FA617B70710F0A61BB70B05
:10435000881F991F5A95A9F780959095BC01CD01AA
:104360000895EE0FFF1F0590F491E02D099481E070
:0C43700090E0F8940C94BC21F894FFCF6E
:10437C000303010000E1000000000000FFFFFFFF4D
:10438C000100000001000000FF010000000001FF1F
:10439C00920987096C0947092C091109DE08C30821
:1043AC00A80800000000FF0C800D200D150D660DF7
:1043BC00240D420D00000000EB07C007FB08FA08B3
:1043CC00671FFCFF0000A91F00C180810000000DC9
:0243DC000A00D5
:00000001FF
